:020000020000FC
:100000000FE50DBF02E00EBF0FEF0ABB04BB0027D8
:1000100001BB0FEF02BB1127012F402F4F7002953C
:10002000502F5F7045BB5BBB00B302FD07C045D0DE
:100030000FD000B302FFFDCF40D0EECF00B303FDE1
:10004000EBCF3BD01FD000B303FFFDCF36D0E4CFC2
:100050000F934F935F93012F402F4F700295502FB6
:100060005F7043954A3031F4442753955A3011F468
:1000700055274427052F0295042B102F5F914F9190
:100080000F9108950F934F935F93012F402F4F705F
:100090000295502F5F70403039F449E0503011F430
:1000A00059E003C05A9501C04A95052F0295042BCB
:1000B000102F5F914F910F9108953F932F9332E34B
:1000C00028EC2A95F1F73A95D9F72F913F910895A9
:00000001FF
