:020000020000FC
:0A0200003F065B4F666D7D077F6FC0
:100000000FE50DBF02E00EBF0FEF0ABB04BB0027D8
:1000100001BB0FEF02BB112766277727012F402F67
:100020004F700295502F5F7022D000C07723B9F433
:1000300000B302FD07C049D02ED000B302FFFDCFB0
:1000400044D0ECCF00B303FDE9CF3FD0612F11279F
:1000500001E0702F00B303FFFDCF37D0DFCF40D0DA
:10006000161711F018D0DACF11277727D7CF0F93B3
:10007000EF93FF930F92F2E0E0E0042FE00F049182
:1000800005BBE0E0052FE00F04910BBB0F90FF9143
:10009000EF910F9108950F934F935F93012F402F8E
:1000A0004F700295502F5F7043954A3031F44427CA
:1000B00053955A3011F455274427052F0295042BE8
:1000C000102F5F914F910F9108953F932F9332E33B
:1000D00028EC2A95F1F73A95D9F72F913F91089599
:1000E0003F932F930F9304E032E328EC2A95F1F726
:1000F0003A95D9F70A95C1F70F912F913F9108953D
:00000001FF
